:1000000044EF00F0FFFFFFFF00C01BF0E9CF17F047
:10001000EACF18F0E1CF19F0E2CF1AF0800ED56EDA
:10002000010ED66ED58EA00EF26E826A6D966F8628
:10003000806A000E161802E1010E151802E1808296
:10004000926A000E161802E1020E151802E1808471
:10005000926A000E161802E1030E151802E180865E
:10006000926A000E161802E1040E151802E180884B
:10007000926A17C0E9FF18C0EAFF19C0E1FF1AC071
:10008000E2FF1BC000F01100D382FF0EC16E926A26
:10009000010ED66EC00ED56EA00EF26ED388D38A36
:1000A000D38C156A166A010E1524016E000E1620F7
:1000B000026E01C015F002C016F0000E021802E137
:1000C000050E011802E1156A166AEDD7FFD7FFFF8A
:020000040030CA
:0E000000FFFFFFFFFFFFFFFFFFFFFFFFFFFF00
:00000001FF
